:020000040800F2
:1000000058040020AD010008E30F00088D0E000821
:10001000E10F0008B90200082713000800000000E3
:10002000000000000000000000000000E70F0008D2
:10003000BB02000800000000E50F0008E90F0008FF
:10004000C7010008C7010008C7010008C701000870
:10005000C7010008C7010008BD020008C701000869
:10006000C7010008C7010008C7010008C701000850
:10007000C7010008C7010008C7010008C701000840
:10008000C7010008C7010008C70100080000000000
:10009000000000000000000000000000C701000890
:1000A000C7010008C7010008C7010008C701000810
:1000B000C7010008C7010008C7010008C701000800
:1000C000C7010008C7010008C7010008C7010008F0
:1000D000C7010008C7010008C701000800000000B0
:1000E000C7010008C7010008C701000800000000A0
:1000F000000000000000000000000000C701000830
:1001000000000000C7010008C7010008C70100087F
:1001100000000000000000000000000000000000DF
:10012000C7010008C7010008C7010008C70100088F
:10013000C7010008000000000000000000000000EF
:10014000000000000000000000000000C7010008DF
:10015000C7010008C7010008C7010008C70100085F
:10016000C7010008C70100080000000000000000EF
:10017000000000000000000000000000000000007F
:1001800000000000C701000800000000000000009F
:10019000C7010008C7010008DFF80CD000F07AF8AA
:1001A00000480047671300085804002006488047AD
:1001B00006480047FEE7FEE7FEE7FEE7FEE7FEE74C
:1001C000FEE7FEE7FEE7FEE7711000089901000870
:1001D0002DE9F05F0546002092469B46884606467C
:1001E000814640241BE0284641464746224600F00F
:1001F00041F853465A46C01A914110D31146184649
:10020000224600F028F82D1A67EB01084F462246D7
:100210000120002100F01FF817EB00094E41201EBD
:10022000A4F10104DFDC484631462A464346BDE8D6
:10023000F09FD2B201E000F8012B491EFBD27047BB
:100240000022F6E710B513460A4604461946FFF7A2
:10025000F0FF204610BD202A04DB203A00FA02F10C
:10026000002070479140C2F1200320FA03F31943A4
:1002700090407047202A04DB203A21FA02F0002146
:10028000704721FA02F3D040C2F1200291400843A6
:1002900019467047064C074D06E0E06840F0010340
:1002A00094E8070098471034AC42F6D3FFF778FF84
:1002B00088130008A8130008FEE77047012000F02B
:1002C00023B8000010B54FF400510C4800F0ECF8D2
:1002D0000B490878C04310F0FF00087009484FF040
:1002E000000102D000F08CFD01E000F0A5FD4CF211
:1002F00050310220401C8842FCD310BD000C02404B
:100300000000002014000020044910B50A680242D1
:1003100002D00860FFF7D6FF10BD0000143C01407A
:100320002DE9F84FDFF860B100224FF001084FF0DF
:10033000030A4FF00F090BF1040E00BF0B6808FA17
:1003400002F42340A3426ED14D68022D01D0122D3C
:100350000ED1D50800EB850CDCF820505607F70EBF
:1003600009FA07F6B5430E69BE402E43CCF820606B
:10037000066855000F790AFA05FC07F0030726EA1C
:100380000C06AF40374307604E68012E05D0022EA1
:1003900003D0112E01D0122E0ED18668CF6826EA26
:1003A0000C06AF40374387604668A6430C79C4F318
:1003B0000014944034434460C6688C6826EA0C06F6
:1003C000AC403443C4604C68E40056D52F4C2568DB
:1003D00045F480452560246822F0030504F4804438
:1003E00000942B4C2E19D6F8084895072F0F09FAC0
:1003F00007F5AC43274DA84201D1002515E0264D55
:10040000A84201D1012510E0244DA84201D10225C6
:100410000BE0234DA84201D1032506E0214DA8425F
:1004200002D1042501E028E00725BD402543C6F898
:100430000858DBF800405D464E689C43F60300D543
:100440001C432C60DEF8004075464E689C43B603A2
:1004500000D51C432C600C4D08352C684E689C431D
:10046000F60200D51C432C60074D0C352C684E68F5
:100470009C43B60200D51C432C60521C102AFFF48A
:100480005DAFBDE8F88F0000003C014044380240F9
:100490000030014000000240000402400008024019
:1004A000000C024000100240426931EA020200D111
:1004B0000904816170470AB1816170470904FBE753
:1004C00001488068704700000400002002488168ED
:1004D0000278114481607047040000200B4810B579
:1004E000016841F400710160016841F480610160BC
:1004F000016841F480710160032000F071F8002070
:1005000000F006F800F024F8002010BD003C024086
:1005100070B50D4D04464FF47A712878B1FBF0F0B8
:100520000A490968B1FBF0F000F0C2FA48B9102C92
:1005300007D200222146501E00F032F800206C60E5
:1005400070BD012070BD00000400002010000020DC
:100550000B4882B0016841F480410160006800F4FA
:10056000804000900648001F016841F08051016002
:10057000006800F080500090072002B000F030B812
:1005800044380240002809DB00F01F02012191409D
:100590004009800000F1E020C0F800117047000021
:1005A000F0B40E4B1B680C46C3F30223C3F10705DE
:1005B000042D00D90425191D072901D2002300E0CC
:1005C000DB1E012606FA05F1491E214099409E4096
:1005D000761E16403143F0BC00F0A6BE0CED00E0E4
:1005E000064900F0070208684FF6FF03184040EA8A
:1005F0000220034A10430860704700000CED00E041
:100600000000FA052DE9F0470E46050065D0DFF839
:100610001481D8F80000F7B200F00F00B04207D202
:1006200088F80070D8F8000000F00F00B04254D1F4
:1006300028683D4C810712D5400703D5206840F457
:10064000E05020602878000703D5206840F460401F
:1006500020602068A96820F0F00008432060287816
:10066000C0072DD0304968680839012812D0022807
:1006700013D0032811D00968890700292DDA2168D1
:1006800021F0030101432160FFF71AFF814641F287
:10069000883A0EE009688903EFE709688901ECE709
:1006A000FFF70EFFA0EB0901514502D90320BDE879
:1006B000F0872068696800F00C00B0EB810FEFD183
:1006C000D8F80010404601F00F01B14207D9077079
:1006D000006800F00F00B04201D00120E7E7287861
:1006E000400705D52068E96820F4E0500843206001
:1006F0002878000706D52068296920F4604040EA80
:10070000C100206000F016F82168084AC1F3031107
:10071000515CC840064908600020FFF7F9FE002040
:10072000C5E70000003C024008380240781300088A
:1007300010000020154810B5006810F00C02144895
:1007400013D04110042A0FD0082A0ED10F4C241FB9
:100750002268236802F03F025B0207D52068C0F3DD
:100760008810A0FB010106E0084610BD2168C1F316
:100770008811A1FB00010023FFF72AFD2168C1F3C6
:100780000141491C4900B0FBF1F010BD083802409E
:100790000024F4002DE9F84F050076D02878DFF822
:1007A000F8B2BE4CC00749D0DBF800105846C1F380
:1007B0008101012908D00068C0F3810002280AD114
:1007C000201D0068400206D52068800336D5686881
:1007D0000028E2D032E06868B0F5803F10D0B0F574
:1007E000A02F206810D020F480302060206820F4F2
:1007F000802020606868A0B1FFF762FE06460CE02A
:10080000206840F48030F4E740F480202060F7E76F
:10081000FFF756FE801B642873D820688003F7D545
:100820000CE0FFF74DFE064605E000BFFFF748FE6F
:10083000801B6428F0D820688003F7D42878DFF87C
:10084000608280074FF000093ED5DBF80010584663
:1008500011F00C0F09D00068C0F3810002280BD101
:100860008D48001F0068400206D42068800715D517
:10087000E868012809D111E0E868B8B10120C8F89A
:100880000000FFF71DFE064605E002E1FFF718FE37
:10089000801B0228C0D820688007F7D52068296906
:1008A00020F0F80040EAC10020600DE0C8F8009098
:1008B000FFF706FE064604E0FFF702FE801B022853
:1008C0001FD820688007F7D42878000722D5724EF9
:1008D000744869696C3671B101210160FFF7F0FD60
:1008E000074604E0FFF7ECFDC01B022809D830687A
:1008F0008007F7D50EE0C0F80090FFF7E1FD07464E
:1009000005E083E0FFF7DCFDC01B02287ED83068DD
:100910008007F7D42878400768D5DFF87CA1002746
:100920000AF1380ADAF80000C0000BD4DAF8001037
:1009300041F08051CAF80010DAF80000012700F0F9
:1009400080500090584E3068C00510D4306840F494
:1009500080703060FFF7B4FD009005E0FFF7B0FD58
:100960000099401A022851D83068C005F6D54A4E81
:10097000A868683601280FD00528306810D020F00C
:1009800001003060306820F004003060A868B8B121
:10099000FFF796FD00900FE0306840F00100F4E7AB
:1009A00040F004003060F7E7FFF78AFD0099411A34
:1009B00041F28830814264D830688007F4D50EE077
:1009C000FFF77EFD009007E0FFF77AFD0099411ADE
:1009D00041F28830814254D830688007F4D42FB176
:1009E000DAF8001021F08051CAF80010A869C0B3ED
:1009F000DBF80010C1F3810102294AD002284846E1
:100A000007D0C8F86000FFF75BFD00E039E005465D
:100A10003AE04746C8F86000FFF752FD064604E09A
:100A2000FFF74EFD801B02282BD820688001F7D4E9
:100A3000D5E907010843A96A1C4A490802EB0141AC
:100A40006A6A41EA8211084395F82C1040EA016174
:100A50001148001F016001203866FFF731FD05468F
:100A600005E014E0FFF72CFD401B022809D82068A0
:100A70008001F7D50BE000BFFFF722FD401B0228E5
:100A800002D90320BDE8F88F20688001F4D400204B
:100A9000F8E70120F6E7000008380240003802407D
:100AA00000004742800E4742007000400000FFFFF8
:100AB00010B5401EB0F1807F01D3012010BD4FF072
:100AC000E02460610F21601700F02EFC0020A0617F
:100AD00007202061002010BD10B590F83C20012AAD
:100AE00022D0012280F83C20CA688C6822F440722F
:100AF00022434C6822F4806222430C6822F4006294
:100B000022430C6922F4805222434C6922F40052A1
:100B10002243C969002322F480420A4301684A64DF
:100B200080F83C30002010BD022010BD70B590F858
:100B30003C20012A19D0012400F83C4F02224270C7
:100B400050F83C3C5A689D6822F070060A68496873
:100B5000324325F0800529435A6050F83C2C9160BF
:100B6000447000210170084670BD022070BD10B5B0
:100B7000040003D094F83D0010B107E0012010BD3F
:100B8000002084F83C00204600F00CF8022084F895
:100B90003D00211D206800F095FA012084F83D00F9
:100BA000002010BD08B500680649884208D10648F3
:100BB000016841F001010160006800F0010000904F
:100BC00008BD0000000001404438024070B50446F2
:100BD00090F83C00012817D0012584F83C500220F1
:100BE00084F83D002068826822F0770222F47F4278
:100BF00082600868502830D00DDC20284DD005DCFC
:100C000098B310283BD148E0022070BD302844D072
:100C1000402834D139E0602828D0702806D0B0F5BB
:100C2000805F2CD0B0F5005F29D10AE0CB68D1E914
:100C30000121206800F09FFA2068816841F0770167
:100C400009E0CB68D1E90121206800F094FA20681E
:100C5000816841F48041816011E0CA684968206878
:100C600000F03EFB5021206807E016E0CA684968A2
:100C7000206800F046FB6021206800F086FA84F8C6
:100C80003D50002084F83C0070BDCA684968206867
:100C900000F026FB40212068EFE72268014610465D
:100CA000EBE7000010B586B0044614216846FFF754
:100CB000C7FA0E492068884216D10D480021026803
:100CC00042F010020260006800F0100005904FF43E
:100CD000007000900220CDE901010120CDE9031050
:100CE00069460448FFF71CFB06B010BD0000014038
:100CF000303802400010024070B5044690F83C00C5
:100D00000D4601280DD0012684F83C60022084F8AD
:100D10003D0042B1042A18D0082A2AD00C2A4DD10D
:100D200039E0022070BD206800F038FA206881693F
:100D300041F0080181612068816921F0040181612D
:100D4000206881692A69114311E0206800F04EFA99
:100D50002068816941F4006181612068816921F422
:100D600080618161206881692A6941EA022181618B
:100D700024E0206800F066FA2068C16941F00801AB
:100D8000C1612068C16921F00401C1612068C169A5
:100D90002A69114311E0206800F080FA2068C169D7
:100DA00041F40061C1612068C16921F48061C161C1
:100DB0002068C1692A6941EA0221C16184F83D6065
:100DC000002084F83C0070BD10B5040003D094F8F6
:100DD0003D0010B107E0012010BD002084F83C0068
:100DE000204600F00CF8022084F83D00211D206808
:100DF00000F068F9012084F83D00002010BD704724
:100E000010B504460068012200F0A8F909492068DD
:100E1000884203D1416C41F40041416420688168FB
:100E200001F00701062903D0016841F001010160CA
:100E3000002010BD0000014010B5044600680022EB
:100E400000F08CF9104B41F2111120688A10984281
:100E500009D1036A0B4206D1036A134203D1436CE2
:100E600023F4004343642068036A0B4206D1016AFD
:100E7000114203D1016821F001010160012084F8D1
:100E80003D00002010BD000000000140FEE7000012
:100E9000F0B587B014216846FFF7D2F92248002444
:100EA000016841F080010160016801F08001059155
:100EB000016841F001010160016801F00101059143
:100EC000016841F010010160016801F01001059115
:100ED000016841F0080101600068144F00F008004B
:100EE0004FF400560590002231463846FFF7E3FAEA
:100EF00001250F480095CDE9010469460D48FFF72B
:100F00000FFA0096CDE90154694638460394FFF77D
:100F100007FA002211460620FFF742FB0620FFF7E2
:100F200031FB07B0F0BD000030380240000C024039
:100F3000000011100000024010B596B000240F947C
:100F400010941194129413941C2108A81494FFF780
:100F500077F920216846FFF773F920481E490160A0
:100F60003021C0E901144FF4FA71C0E9031444615F
:100F70008461FFF7FCFD4FF480500F900FA91748D4
:100F8000FFF724FE1548FFF71FFF139413A913481A
:100F90001494FFF7CBFD602008904FF4AF70CDE9BB
:100FA00009040B940C940D94002208A90B480E948C
:100FB000FFF7A2FE00944FF40050CDE904400294E4
:100FC00001940394694605480794FFF785FD03489B
:100FD000FFF768FE16B010BD0000014014000020AD
:100FE000FEE7704770477047FFF770BA30B593B0AF
:100FF00030216846FFF724F914210CA8FFF720F9E7
:1010000019480024016841F080510160006800F037
:10101000805011901548016841F44041016000681A
:10102000022500F44040119001200090000401903E
:101030008001CDE906500420C021CDE908010A90C5
:1010400008200B906846FFF7A5FB0F20CDE90C05A3
:101050004FF4A050CDE90E4003210CA81094FFF7E7
:10106000D1FA13B030BD000040380240007000409B
:101070001048016841F4700101600F48016841F0B7
:10108000010101600C4A00210832116002680B4B1B
:101090001A400260031D0A4A1A60026822F4802284
:1010A000026005480C30016002495806803908602A
:1010B0007047000088ED00E000380240FFFFF6FEB8
:1010C00010300024F0B502681D4B1E4C9F031E4DCE
:1010D0001E4E984207D0B84205D0A04203D0A84285
:1010E00001D0B04204D122F0700C4A6842EA0C02EE
:1010F000984210D0B8420ED0A0420CD0A8420AD0DC
:10110000B04208D0124CA04205D0124CA04202D0EE
:10111000114CA04203D122F44074CA6822434C69A6
:1011200022F08002224302608A68C2620A688262F8
:10113000984201D10969016301214161F0BD0000BC
:10114000000001400004004000080040000C004086
:1011500000400140004401400048014010B501F04A
:101160001F030121046A99408C430462016A9A407A
:101170001143016210BD10B5846842EA032224F4D1
:101180007F440A432243826010BD826822F07002CD
:101190000A4342F0070181607047000030B5026ADF
:1011A00022F001020262026A4368846924F0730536
:1011B0000C682C4322F002058A682A430A4DA84293
:1011C0000BD122F00805CA6823F440732A434D6905
:1011D00022F004021D438B692B43436084614968FC
:1011E0004163026230BD00000000014030B5026A78
:1011F00022F010020262026A436884690D6824F4D6
:10120000E64444EA05248D6822F0200242EA0512F1
:101210000B4DA8420ED1CD6822F0800242EA0512A1
:101220004D6923F4406343EA85038D6922F040024F
:1012300043EA85034360846149688163026230BD8B
:101240000000014030B5026A22F480720262036A33
:101250004268C46923F4007324F073050C682C43BE
:101260008D6843EA05230C4DA8420ED1CD6823F4C6
:10127000006343EA05234D6922F4405242EA051215
:101280008D6923F4806342EA05124260C4614968B3
:10129000C163036230BD00000000014030B5026A46
:1012A00022F480520262046A4268C3690D6823F422
:1012B000E64343EA05238D6824F4005444EA0534E8
:1012C000064DA84204D14D6922F4804242EA8512BB
:1012D0004260C36149680164046230BD000001409E
:1012E00010B5036A046A24F001040462846924F0DE
:1012F000F00444EA021423F00A020A438461026201
:1013000010BD10B5036A23F0100303628369046AF9
:1013100023F4704343EA023224F0A00343EA0111AC
:101320008261016210BDFEE70907090E002804DB97
:1013300000F1E02080F80014704700F00F0000F189
:10134000E02080F8141D704702E008C8121F08C191
:10135000002AFAD170477047002001E001C1121F36
:10136000002AFBD17047FFF7B9F8FFF73FFEFFF700
:101370008FFDFFF7E1FDFEE7000000000000000028
:101380000102030406070809A81300080000002052
:101390001400000048130008BC13000814000020CB
:1013A0004404000058130008000000000100000081
:0C13B00010000000000000000024F40009
:040000050800019955
:00000001FF
