:020000040800F2
:1000000080040020AD010008FB160008E112000882
:10001000F9160008F5050008DD17000800000000CB
:10002000000000000000000000000000FF160008B3
:10003000F705000800000000FD1600080117000881
:10004000C7010008C7010008C7010008C701000870
:10005000C7010008C7010008C7010008C701000860
:10006000C7010008C7010008C7010008C701000850
:10007000C7010008C7010008C7010008C701000840
:10008000C7010008C7010008C70100080000000000
:10009000000000000000000000000000C701000890
:1000A000C7010008C7010008C7010008C701000810
:1000B000C7010008C7010008C7010008C701000800
:1000C000C7010008C7010008C7010008C7010008F0
:1000D000C7010008C7010008C701000800000000B0
:1000E000C7010008C7010008C701000800000000A0
:1000F000000000000000000000000000C701000830
:1001000000000000C7010008C7010008C70100087F
:1001100000000000000000000000000000000000DF
:10012000C7010008C7010008C7010008C70100088F
:10013000C7010008000000000000000000000000EF
:10014000000000000000000000000000C7010008DF
:10015000C7010008C7010008C7010008C70100085F
:10016000C7010008C70100080000000000000000EF
:10017000000000000000000000000000000000007F
:1001800000000000C701000800000000000000009F
:10019000C7010008C7010008DFF80CD000F018FA0A
:1001A000004800471D1800088004002006488047CA
:1001B00006480047FEE7FEE7FEE7FEE7FEE7FEE74C
:1001C000FEE7FEE7FEE7FEE7891700089901000851
:1001D0002DE9F05F0546002092469B46884606467C
:1001E000814640241BE0284641464746224600F00F
:1001F0004BF953465A46C01A914110D3114618463E
:10020000224600F032F92D1A67EB01084F462246CC
:100210000120002100F029F917EB00094E41201EB2
:10022000A4F10104DFDC484631462A464346BDE8D6
:10023000F09FD2B201E000F8012B491EFBD27047BB
:100240000022F6E710B513460A4604461946FFF7A2
:10025000F0FF204610BD2DE9FE4F81EA030404F0B3
:10026000004421F0004100944FF0000B23F00043C4
:1002700050EA01045ED052EA03045BD0C3F30A548F
:10028000C1F30A552C44A4F2F3340194A0FB0254A8
:10029000C1F3130141F48011C3F3130343F480133A
:1002A00001FB024400FB034E840A970A44EA81548E
:1002B00047EA8357A4FB076802958D0A05FB07856B
:1002C0004FEA932C04FB0C542705029D4FEA065875
:1002D00047EA1637B5EB08056EEB070C870E920E52
:1002E00047EA811742EA8312A7FB0201B6EB0B0132
:1002F00064EB00042B0D43EA0C335E1844EB1C50F6
:10030000DA465146E7FB0201C5F313044FEA0B330B
:1003100043EA14534FEA0432019C43EA0603A4F172
:100320000C040294009CCDE900B400F003F903B082
:10033000BDE8F08F00200146F9E72DE9F04D81EA94
:10034000030404F0004B21F0004514464FF0000A6E
:1003500023F0004150EA050220D054EA01021DD0EA
:10036000C5F30A570246C5F31303C1F31300C1F3E3
:100370000A5640F4801543F48013A7EB0608101BBF
:10038000D64608F2FD3873EB050002D308F10108E8
:1003900001E092185B41B8F1000F03DA002001463A
:1003A000BDE8F08D00204FF48011064684460EE033
:1003B000171B73EB050705D3121B63EB05030643FD
:1003C0004CEA010C49084FEA300092185B4150EAB0
:1003D0000107EDD152EA030012D082EA040083EA59
:1003E0000501084305D0101BAB4106D201220023B2
:1003F00006E000224FF0004302E06FF001025310CC
:100400001AEB06004CEB085110EB0A0041EB0B0114
:10041000BDE8F04D00F07FB80EB540F233410291D7
:100420000021CDE900110A460B4600F083F803B025
:1004300000BD01F0004330B421F0004150EA010258
:1004400006D00A0DA2F56072C1F31301002A02DC86
:1004500030BC00207047440F44EAC104C100E018DA
:1004600030BC00EBC25000F01FB8202A04DB203A59
:1004700000FA02F1002070479140C2F1200320FAF7
:1004800003F3194390407047202A04DB203A21FAF5
:1004900002F00021704721FA02F3D040C2F120029D
:1004A00091400843194670470029A8BF7047401C77
:1004B000490008BF20F00100704710B4B0FA80FC7A
:1004C00000FA0CF050EA010404BF10BC704749B1B7
:1004D000CCF1200421FA04F411FA0CF118BF012127
:1004E00021430843A3EB0C01CB1D4FEA00614FEA07
:1004F000102042BF002010BC704700EBC3501044D6
:100500000029A4BF10BC7047401C490008BF20F060
:10051000010010BC704710B5141E73F1000408DA16
:10052000401C41F1000192185B411A4301D120F0B7
:10053000010010BD2DE9F04D92469B4611B1B1FA74
:1005400081F202E0B0FA80F220329046FFF78DFF90
:1005500004460F4640EA0A0041EA0B0153465A4658
:10056000084313D0114653EA010019D0C8F14002E4
:100570005046FFF789FF05460E465046594642460B
:10058000FFF773FF084305D0012004E020463946F9
:10059000BDE8F08D0020054346EAE0762C43374362
:1005A0000A986305E40AA0EB08000022FD0A44EA69
:1005B00047540A3002D500200146E9E70105101929
:1005C0006941DDE9084500196941BDE8F04DA2E740
:1005D000064C074D06E0E06840F0010394E8070090
:1005E00098471034AC42F6D3FFF7DAFD4C190008F7
:1005F0006C190008FEE7704770B5044600F0DEF89D
:100600000546601C02D004480078044400F0D6F887
:10061000401BA042FAD370BD1C0000202DE9F84F0A
:10062000DFF860B100224FF001084FF0030A4FF0ED
:100630000F090BF1040E00BF0B6808FA02F4234007
:10064000A3426ED14D68022D01D0122D0ED1D508D6
:1006500000EB850CDCF820505607F70E09FA07F678
:10066000B5430E69BE402E43CCF8206006685500A5
:100670000F790AFA05FC07F0030726EA0C06AF40DB
:10068000374307604E68012E05D0022E03D0112E8D
:1006900001D0122E0ED18668CF6826EA0C06AF4034
:1006A000374387604668A6430C79C4F3001494402E
:1006B00034434460C6688C6826EA0C06AC40344378
:1006C000C4604C68E40056D52F4C256845F480453D
:1006D0002560246822F0030504F4804400942B4C28
:1006E0002E19D6F8084895072F0F09FA07F5AC43DD
:1006F000274DA84201D1002515E0264DA84201D181
:10070000012510E0244DA84201D102250BE0234D24
:10071000A84201D1032506E0214DA84202D10425BB
:1007200001E028E00725BD402543C6F80858DBF85E
:1007300000405D464E689C43F60300D51C432C6088
:10074000DEF8004075464E689C43B60300D51C4356
:100750002C600C4D08352C684E689C43F60200D581
:100760001C432C60074D0C352C684E689C43B60228
:1007700000D51C432C60521C102AFFF45DAFBDE86D
:10078000F88F0000003C0140443802400030014036
:10079000000002400004024000080240000C024039
:1007A00000100240426931EA020200D1090481616D
:1007B00070470AB1816170470904FBE7014880680E
:1007C000704700001C00002070B504001BD094F896
:1007D0003D00002520B984F83C50204600F042FA44
:1007E000242084F83D002068016821F001010160A7
:1007F00000F094FB4D4A6168914201D84C4900E0F9
:100800004C49884201D2012070BD4B492368B0FB9E
:10081000F1F15E6826F03F060E435E606368934226
:1008200006D94FF4967359434FF47A73B1FBF3F141
:100830002368491C1E6A26F03F063143196261682D
:10084000914210D84900401EB0FBF1F2521CC2F395
:100850000B02042A01D2042022E0B0FBF1F0401C7C
:10086000C0F30B001CE0A368F3B301EBC10202EB81
:100870000116421EB2FBF6F2521C42F480421205EF
:1008800049D093B301EBC10202EB0111401EB0FB52
:10089000F1F0401CC0F30B0040F4804040F40040F5
:1008A0002168CA694CF6FF739A431043C861D4E9C2
:1008B0000701084321680A6822F0C002104308605B
:1008C000D4E9030101432068826848F2FF339A4368
:1008D00011438160D4E9050108432168CA6822F008
:1008E000FF021043C86001E00EE016E020680168D6
:1008F00041F0010101602564202084F83D0025635A
:1009000084F83E50002070BD01EB4106421EB2FB50
:10091000F6F2521CB3E70120C2E701EB4101401E91
:10092000B0FBF1F0401CC0F30B00B7E7A08601005C
:1009300080841E0000093D0040420F002DE9FF4F5A
:1009400083B09A46DDE9119793460446DDF840806E
:10095000FFF734FF054694F83D00202870D1192395
:10096000012271492046009500F0B6FD0028F5D11E
:1009700094F83C00012863D0012084F83C002068F2
:100980000168C90703D1016841F0010101602068D5
:10099000016821F400610160222084F83D004020BC
:1009A00084F83E0000262664C4F82480A4F82A9027
:1009B000608D20855D48E062CDE9007553465A465A
:1009C0002046049900F0A4FC00287CD1208DD0B1F1
:1009D000012821D00228206824D041698069009034
:1009E000208D032869D801282BD0514902283B4685
:1009F0004FF00002009559D08846204600F06CFD6B
:100A0000002860D13CE0206841698169009101685B
:100A100041F40071016077E02068016821F4806191
:100A20000160F0E7016821F48061016020680168DD
:100A300041F400610160206841698069009063E0D1
:100A40006FE02A463946204600F0C5FD98BB206875
:100A50000069616A08704EE02068016841F4007125
:100A6000016020680069616A0870606A401C606209
:100A7000218D491E2185618D491E6185216838E0DF
:100A80002068016821F48061016020680069616A62
:100A90000870606A401C6062208D401E2085608D59
:100AA000401E60853B46002241460095204600F0EE
:100AB00013FD00B9D0E706E0FFE72A463946204695
:100AC00000F089FD18B1012007B0BDE8F08F206863
:100AD0000069616A0870606A401C6062218D491E6D
:100AE0002185618D491E618521684A69D24352077B
:100AF0000AD409690170606A401C6062208D401E42
:100B00002085608D401E6085208D00287FF468AFB1
:100B1000202084F83D0084F83E6084F83C6000208A
:100B2000D2E70220D0E70000020010000000FFFF23
:100B3000040001002DE9FF4F83B09A46DDE91197CB
:100B400093460446DDF84080FFF738FE054694F8EA
:100B50003D0020287FD119230122404920460095DD
:100B600000F0BAFC002876D194F83C00012872D03D
:100B7000012084F83C0020680168C90703D101689E
:100B800041F0010101602068016821F40061016009
:100B9000212084F83D00402084F83E000026266491
:100BA000C4F82480A4F82A90608D20852C48E06247
:100BB000CDE9007553465A462046049900F01CFCC6
:100BC00070B930E02A463946204600F037FD58B16A
:100BD000206C042804D12068016841F40071016090
:100BE000012007B0BDE8F08F606A216800780861D5
:100BF000606A401C6062218D491E89B22185628D28
:100C0000521E628522685369DB435B070BD469B1CE
:100C100000781061606A401C6062208D401E208553
:100C2000608D401E6085208D0028CBD12A46394634
:100C3000204600F02BFC0028CAD154F83D0B016877
:100C400041F400710160202004F81E09E677667700
:100C50000020C6E7FFE70220C3E700000200100003
:100C60000000FFFF10B586B0044614216846FFF768
:100C7000E7FA14492068884221D11348016841F0FD
:100C8000020101600068694600F0020005904FF41F
:100C90001070009012200190012002900320039018
:100CA000042004900948FFF7B9FC07481030016898
:100CB00041F400110160006800F40010059006B0D6
:100CC00010BD0000005400403038024000040240D3
:100CD0000248816802781144816070471C0000203E
:100CE0000B4810B5016841F400710160016841F4DE
:100CF00080610160016841F480710160032000F0AF
:100D000063F8002000F006F800F024F8002010BD81
:100D1000003C024070B50D4D04464FF47A712878BE
:100D2000B1FBF0F00A490968B1FBF0F000F0C4FA39
:100D300048B9102C07D200222146501E00F024F89A
:100D400000206C6070BD012070BD00001C00002000
:100D5000280000200B4882B0016841F48041016006
:100D6000006800F4804000900648001F016841F0D0
:100D700080510160006800F080500090072002B0B0
:100D800000F022B844380240F0B40E4B1B680C4609
:100D9000C3F30223C3F10705042D00D90425191D4F
:100DA000072901D2002300E0DB1E012606FA05F127
:100DB000491E214099409E40761E16403143F0BCAA
:100DC00000F00DBD0CED00E0064900F007020868D8
:100DD0004FF6FF03184040EA0220034A1043086020
:100DE000704700000CED00E00000FA052DE9F04727
:100DF0000E46050065D0DFF81481D8F80000F7B280
:100E000000F00F00B04207D288F80070D8F8000058
:100E100000F00F00B04254D128683D4C810712D534
:100E2000400703D5206840F4E05020602878000790
:100E300003D5206840F4604020602068A96820F055
:100E4000F000084320602878C0072DD0304968683A
:100E50000839012812D0022813D0032811D00968BC
:100E6000890700292DDA216821F00301014321605F
:100E7000FFF7A4FC814641F2883A0EE00968890335
:100E8000EFE709688901ECE7FFF798FCA0EB09019F
:100E9000514502D90320BDE8F0872068696800F059
:100EA0000C00B0EB810FEFD1D8F80010404601F0F4
:100EB0000F01B14207D90770006800F00F00B0427F
:100EC00001D00120E7E72878400705D52068E968C8
:100ED00020F4E050084320602878000706D52068F9
:100EE000296920F4604040EAC100206000F026F843
:100EF0002168084AC1F30311515CC84006490860E3
:100F00000020FFF707FF0020C5E70000003C02407B
:100F10000838024034190008280000200448054918
:100F200000680968044AC1F38221515CC8407047D7
:100F3000280000200838024044190008154810B560
:100F4000006810F00C02144813D04110042A0FD08E
:100F5000082A0ED10F4C241F2268236802F03F029A
:100F60005B0207D52068C0F38810A0FB010106E0F2
:100F7000084610BD2168C1F38811A1FB00010023C0
:100F8000FFF726F92168C1F30141491C4900B0FB74
:100F9000F1F010BD083802400024F4002DE9F84FAC
:100FA000050076D02878DFF8F8B2BE4CC00749D0EB
:100FB000DBF800105846C1F38101012908D0006810
:100FC000C0F3810002280AD1201D0068400206D526
:100FD0002068800336D568680028E2D032E068686F
:100FE000B0F5803F10D0B0F5A02F206810D020F4CD
:100FF00080302060206820F4802020606868A0B1E4
:10100000FFF7DCFB06460CE0206840F48030F4E794
:1010100040F480202060F7E7FFF7D0FB801B6428B6
:1010200073D820688003F7D50CE0FFF7C7FB0646AE
:1010300005E000BFFFF7C2FB801B6428F0D82068E2
:101040008003F7D42878DFF8608280074FF000092A
:101050003ED5DBF80010584611F00C0F09D000689F
:10106000C0F3810002280BD18D48001F00684002A8
:1010700006D42068800715D5E868012809D111E059
:10108000E868B8B10120C8F80000FFF797FB0646F2
:1010900005E002E1FFF792FB801B0228C0D8206820
:1010A0008007F7D52068296920F0F80040EAC100E0
:1010B00020600DE0C8F80090FFF780FB064604E0D2
:1010C000FFF77CFB801B02281FD820688007F7D41D
:1010D0002878000722D5724E744869696C3671B160
:1010E00001210160FFF76AFB074604E0FFF766FB9A
:1010F000C01B022809D830688007F7D50EE0C0F879
:101100000090FFF75BFB074605E083E0FFF756FB27
:10111000C01B02287ED830688007F7D428784007A3
:1011200068D5DFF87CA100270AF1380ADAF8000058
:10113000C0000BD4DAF8001041F08051CAF800105A
:10114000DAF80000012700F080500090584E306817
:10115000C00510D4306840F480703060FFF72EFB7B
:10116000009005E0FFF72AFB0099401A022851D8A9
:101170003068C005F6D54A4EA868683601280FD0F9
:101180000528306810D020F001003060306820F071
:1011900004003060A868B8B1FFF710FB00900FE0C2
:1011A000306840F00100F4E740F004003060F7E7F9
:1011B000FFF704FB0099411A41F28830814264D85C
:1011C00030688007F4D50EE0FFF7F8FA009007E0EA
:1011D000FFF7F4FA0099411A41F28830814254D85D
:1011E00030688007F4D42FB1DAF8001021F0805174
:1011F000CAF80010A869C0B3DBF80010C1F3810180
:1012000002294AD00228484607D0C8F86000FFF7F4
:10121000D5FA00E039E005463AE04746C8F86000F4
:10122000FFF7CCFA064604E0FFF7C8FA801B022855
:101230002BD820688001F7D4D5E907010843A96AB3
:101240001C4A490802EB01416A6A41EA82110843DB
:1012500095F82C1040EA01611148001F016001203F
:101260003866FFF7ABFA054605E014E0FFF7A6FA8B
:10127000401B022809D820688001F7D50BE000BF89
:10128000FFF79CFA401B022802D90320BDE8F88F23
:1012900020688001F4D40020F8E70120F6E7000080
:1012A000083802400038024000004742800E4742A2
:1012B000007000400000FFFF10B5401EB0F1807FBD
:1012C00001D3012010BD4FF0E02460610F216017B1
:1012D00000F085FA0020A06107202061002010BDE9
:1012E000FEE701684A69D24352050FD46FF4806269
:1012F0004A61002140F8301F202242738173026945
:1013000042F004020261017301207047002070471F
:101310002DE9F84F0446006889460B9D0168984600
:10132000174641F4806101602068016841F48071D2
:10133000016000954FF0011A0022514620460A9B99
:1013400000F0CAF8002853D1216809F0FE000861B6
:101350000AF1010B2B46594620460A9A00F0F0F894
:10136000F0BB20684169806900902A4620460A99AE
:1013700000F064F940B1206C042839D1206801687C
:1013800041F40071016033E0FEB2B8F1010F09D001
:101390002168380A08612A4620460A9900F04EF969
:1013A0000028E8D1206806612A4620460A9900F004
:1013B00045F90028DFD12068016841F4807101609F
:1013C00000950022514620460A9B00F085F838B966
:1013D000216809F0FF0040F0010008612B4600E0A1
:1013E00006E0594620460A9A00F0AAF8002800D0E4
:1013F0000120BDE8F88F00002DE9F843044600689D
:101400000D46DDE9089701689846164641F480715B
:1014100001604B4600224FF001112046009700F07A
:101420005BF8E0B9216805F0FE0008613B464A46DA
:101430001549204600F084F888B920684169806920
:1014400000903A464946204600F0F8F850B1206C2A
:10145000042804D12068016841F400710160012072
:10146000BDE8F883F5B2B8F1010F09D02168300A60
:1014700008613A464946204600F0E0F80028E6D1E7
:10148000206805610020EBE70200010070B51646F8
:101490000D4604460DE02046FFF723FF08B101206A
:1014A00070BD681C05D0FFF789F9801BA84207D8DA
:1014B00035B120684069C0434007ECD4002070BDBE
:1014C000002044F8300F20216173A073216941F09E
:1014D000200121612073E2E72DE9F0471E46904686
:1014E0000D460446C1F30747DDF8209008E0701C64
:1014F00006D0FFF763F9A0EB0900B0420FD876B130
:101500002068012F18D0806925EA00000004000C33
:1015100014D000214145EAD00020BDE8F08700202A
:1015200044F8300F20216173A073216941F020013C
:10153000216120730120F0E74069E5E70121E9E737
:101540002DE9F0479A4691460E46044600254FF095
:101550002008C1F3074725E020684069C0434005E3
:1015600014D42068016841F40071016021686FF4AF
:1015700080604861256384F83D8084F83E50206C8B
:1015800040F00400206484F83C501FE0B9F1FF3FB4
:1015900008D0FFF713F9A0EB0A0149450CD8B9F1BF
:1015A000000F09D02068012F13D0806926EA0000BF
:1015B0000004000C0BD0CFE744F8305F84F80D80B6
:1015C000A573206940F02000206125730120BDE84B
:1015D000F0874069EAE72DE9F041002590460E4684
:1015E0000446202717E04069C043C0060CD454F8D5
:1015F000301B6FF01000486144F810596777A577E9
:10160000206A2062257717E0FFF7D8F8A0EB0800E2
:10161000B04208D83EB120684169C9434906E2D4C6
:101620000020BDE8F08144F8305F6773A57320693E
:1016300040F02000206125730120F2E770B51646C6
:101640000D4604460DE02046FFF74BFE08B1012091
:1016500070BD681C05D0FFF7B1F8801BA84207D801
:1016600035B120684069C0430006ECD4002070BD4D
:10167000002044F8300F20216173A073216941F0EC
:10168000200121612073E2E770B586B0142168461D
:10169000FEF7D6FD16480024016841F08001016084
:1016A000016801F080010591016841F008010160C5
:1016B000016801F008010591016841F00201016033
:1016C00000680C4E00F002004FF400550590002217
:1016D00029463046FFF76DF801200095CDE9010459
:1016E000694630460394FEF799FF06B070BD0000CE
:1016F00030380240000C0240FEE7704770477047E8
:10170000FFF7E6BA30B593B030216846FEF798FD92
:1017100014210CA8FEF794FD19480024016841F03B
:1017200080510160006800F08050119015480168F8
:1017300041F4404101600068022500F440401190EE
:1017400001200090000401908001CDE906500420A2
:10175000C021CDE908010A9008200B906846FFF7E8
:101760001DFC0F20CDE90C054FF4A050CDE90E4033
:1017700003210CA81094FFF739FB13B030BD000013
:1017800040380240007000401048016841F4700188
:1017900001600F48016841F0010101600C4A00211D
:1017A0000832116002680B4B1A400260031D0A4A9E
:1017B0001A60026822F48022026005480C30016041
:1017C00002495806803908607047000088ED00E043
:1017D00000380240FFFFF6FE10300024FEE7090744
:1017E000090E002804DB00F1E02080F800147047A7
:1017F00000F00F0000F1E02080F8141D704702E0B7
:1018000008C8121F08C1002AFAD17047704700208B
:1018100001E001C1121F002AFBD170472DED048B9E
:1018200084B0FFF75DFAFFF76DFFFFF72DFF394832
:10183000374932220160384941600021C0E9021273
:101840004FF48042C0E904218161C1610162FEF769
:10185000BBFF01203149CDE900106424034620225A
:10186000029432212B48FFF765F9A0462B4C9FEDDF
:101870002C8B16349FED2C9B284D4FF4005B4FF0C2
:10188000060AA4F1060959462948FEF78BFFCDE95F
:10189000004A0123AC2232211E48CDF80880FFF710
:1018A0004DF82188A9F800106688A9F80260A78879
:1018B000A9F804700846FEF7AFFD53EC182BFEF7AD
:1018C000CAFC53EC192BFEF738FDFEF7B2FD686039
:1018D0003046FEF7A1FD53EC182BFEF7BCFC53EC91
:1018E000192BFEF72AFDFEF7A4FDA8603846FEF787
:1018F00093FD53EC182BFEF7AEFC53EC192BFEF7BF
:101900001CFDFEF796FDE8605020FEF775FEBAE775
:10191000005400402C000020801A06000000002027
:10192000000000000000004000000000C0FFDF4099
:10193000000C02400000000000000000010203044F
:101940000607080900000000010203046C190008E2
:10195000000000202C000000FE1700089819000865
:101960002C000020540400000E180008570000004E
:101970000000000000000000000000000000000067
:101980000000000000000000010000001000000046
:08199000000000000024F40037
:040000050800019955
:00000001FF
